{
  "_format": "hh-sol-artifact-1",
  "contractName": "LendingPool",
  "sourceName": "contracts/protocol/lendingpool/LendingPool.sol",
  "abi": [
    {
      "anonymous": false,
      "inputs": [
        {
          "indexed": true,
          "internalType": "address",
          "name": "project",
          "type": "address"
        },
        {
          "indexed": true,
          "internalType": "address",
          "name": "asset",
          "type": "address"
        },
        {
          "indexed": false,
          "internalType": "address",
          "name": "user",
          "type": "address"
        },
        {
          "indexed": true,
          "internalType": "address",
          "name": "onBehalfOf",
          "type": "address"
        },
        {
          "indexed": false,
          "internalType": "uint256",
          "name": "amount",
          "type": "uint256"
        },
        {
          "indexed": false,
          "internalType": "uint256",
          "name": "borrowRate",
          "type": "uint256"
        }
      ],
      "name": "Borrow",
      "type": "event"
    },
    {
      "anonymous": false,
      "inputs": [
        {
          "indexed": true,
          "internalType": "address",
          "name": "project",
          "type": "address"
        },
        {
          "indexed": true,
          "internalType": "address",
          "name": "asset",
          "type": "address"
        },
        {
          "indexed": false,
          "internalType": "address",
          "name": "user",
          "type": "address"
        },
        {
          "indexed": true,
          "internalType": "address",
          "name": "onBehalfOf",
          "type": "address"
        },
        {
          "indexed": false,
          "internalType": "uint256",
          "name": "amount",
          "type": "uint256"
        }
      ],
      "name": "Deposit",
      "type": "event"
    },
    {
      "anonymous": false,
      "inputs": [
        {
          "indexed": true,
          "internalType": "address",
          "name": "target",
          "type": "address"
        },
        {
          "indexed": true,
          "internalType": "address",
          "name": "initiator",
          "type": "address"
        },
        {
          "indexed": true,
          "internalType": "address",
          "name": "asset",
          "type": "address"
        },
        {
          "indexed": false,
          "internalType": "uint256",
          "name": "amount",
          "type": "uint256"
        },
        {
          "indexed": false,
          "internalType": "uint256",
          "name": "premium",
          "type": "uint256"
        },
        {
          "indexed": false,
          "internalType": "uint16",
          "name": "referralCode",
          "type": "uint16"
        }
      ],
      "name": "FlashLoan",
      "type": "event"
    },
    {
      "anonymous": false,
      "inputs": [
        {
          "indexed": true,
          "internalType": "address",
          "name": "collateralAsset",
          "type": "address"
        },
        {
          "indexed": true,
          "internalType": "address",
          "name": "debtAsset",
          "type": "address"
        },
        {
          "indexed": true,
          "internalType": "address",
          "name": "user",
          "type": "address"
        },
        {
          "indexed": false,
          "internalType": "uint256",
          "name": "debtToCover",
          "type": "uint256"
        },
        {
          "indexed": false,
          "internalType": "uint256",
          "name": "liquidatedCollateralAmount",
          "type": "uint256"
        },
        {
          "indexed": false,
          "internalType": "address",
          "name": "liquidator",
          "type": "address"
        },
        {
          "indexed": false,
          "internalType": "bool",
          "name": "receiveAToken",
          "type": "bool"
        }
      ],
      "name": "LiquidationCall",
      "type": "event"
    },
    {
      "anonymous": false,
      "inputs": [],
      "name": "Paused",
      "type": "event"
    },
    {
      "anonymous": false,
      "inputs": [
        {
          "indexed": true,
          "internalType": "address",
          "name": "reserve",
          "type": "address"
        },
        {
          "indexed": true,
          "internalType": "address",
          "name": "user",
          "type": "address"
        }
      ],
      "name": "RebalanceStableBorrowRate",
      "type": "event"
    },
    {
      "anonymous": false,
      "inputs": [
        {
          "indexed": true,
          "internalType": "address",
          "name": "project",
          "type": "address"
        },
        {
          "indexed": true,
          "internalType": "address",
          "name": "reserve",
          "type": "address"
        },
        {
          "indexed": false,
          "internalType": "address",
          "name": "user",
          "type": "address"
        },
        {
          "indexed": true,
          "internalType": "address",
          "name": "repayer",
          "type": "address"
        },
        {
          "indexed": false,
          "internalType": "uint256",
          "name": "amount",
          "type": "uint256"
        }
      ],
      "name": "Repay",
      "type": "event"
    },
    {
      "anonymous": false,
      "inputs": [
        {
          "indexed": true,
          "internalType": "address",
          "name": "reserve",
          "type": "address"
        },
        {
          "indexed": false,
          "internalType": "uint256",
          "name": "liquidityRate",
          "type": "uint256"
        },
        {
          "indexed": false,
          "internalType": "uint256",
          "name": "stableBorrowRate",
          "type": "uint256"
        },
        {
          "indexed": false,
          "internalType": "uint256",
          "name": "variableBorrowRate",
          "type": "uint256"
        },
        {
          "indexed": false,
          "internalType": "uint256",
          "name": "liquidityIndex",
          "type": "uint256"
        },
        {
          "indexed": false,
          "internalType": "uint256",
          "name": "variableBorrowIndex",
          "type": "uint256"
        }
      ],
      "name": "ReserveDataUpdated",
      "type": "event"
    },
    {
      "anonymous": false,
      "inputs": [
        {
          "indexed": true,
          "internalType": "address",
          "name": "reserve",
          "type": "address"
        },
        {
          "indexed": true,
          "internalType": "address",
          "name": "user",
          "type": "address"
        }
      ],
      "name": "ReserveUsedAsCollateralDisabled",
      "type": "event"
    },
    {
      "anonymous": false,
      "inputs": [
        {
          "indexed": true,
          "internalType": "address",
          "name": "reserve",
          "type": "address"
        },
        {
          "indexed": true,
          "internalType": "address",
          "name": "user",
          "type": "address"
        }
      ],
      "name": "ReserveUsedAsCollateralEnabled",
      "type": "event"
    },
    {
      "anonymous": false,
      "inputs": [
        {
          "indexed": true,
          "internalType": "address",
          "name": "reserve",
          "type": "address"
        },
        {
          "indexed": true,
          "internalType": "address",
          "name": "user",
          "type": "address"
        },
        {
          "indexed": false,
          "internalType": "uint256",
          "name": "rateMode",
          "type": "uint256"
        }
      ],
      "name": "Swap",
      "type": "event"
    },
    {
      "anonymous": false,
      "inputs": [],
      "name": "Unpaused",
      "type": "event"
    },
    {
      "anonymous": false,
      "inputs": [
        {
          "indexed": true,
          "internalType": "address",
          "name": "reserve",
          "type": "address"
        },
        {
          "indexed": true,
          "internalType": "address",
          "name": "user",
          "type": "address"
        },
        {
          "indexed": true,
          "internalType": "address",
          "name": "to",
          "type": "address"
        },
        {
          "indexed": false,
          "internalType": "uint256",
          "name": "amount",
          "type": "uint256"
        }
      ],
      "name": "Withdraw",
      "type": "event"
    },
    {
      "anonymous": false,
      "inputs": [
        {
          "indexed": true,
          "internalType": "address",
          "name": "reserve",
          "type": "address"
        },
        {
          "indexed": true,
          "internalType": "address",
          "name": "user",
          "type": "address"
        },
        {
          "indexed": true,
          "internalType": "address",
          "name": "to",
          "type": "address"
        },
        {
          "indexed": false,
          "internalType": "uint256",
          "name": "amount",
          "type": "uint256"
        }
      ],
      "name": "WithdrawInterest",
      "type": "event"
    },
    {
      "inputs": [],
      "name": "FLASHLOAN_PREMIUM_TOTAL",
      "outputs": [
        {
          "internalType": "uint256",
          "name": "",
          "type": "uint256"
        }
      ],
      "stateMutability": "view",
      "type": "function"
    },
    {
      "inputs": [],
      "name": "LENDINGPOOL_REVISION",
      "outputs": [
        {
          "internalType": "uint256",
          "name": "",
          "type": "uint256"
        }
      ],
      "stateMutability": "view",
      "type": "function"
    },
    {
      "inputs": [],
      "name": "MAX_NUMBER_RESERVES",
      "outputs": [
        {
          "internalType": "uint256",
          "name": "",
          "type": "uint256"
        }
      ],
      "stateMutability": "view",
      "type": "function"
    },
    {
      "inputs": [],
      "name": "MAX_STABLE_RATE_BORROW_SIZE_PERCENT",
      "outputs": [
        {
          "internalType": "uint256",
          "name": "",
          "type": "uint256"
        }
      ],
      "stateMutability": "view",
      "type": "function"
    },
    {
      "inputs": [
        {
          "internalType": "address",
          "name": "project",
          "type": "address"
        },
        {
          "internalType": "address",
          "name": "asset",
          "type": "address"
        },
        {
          "internalType": "uint256",
          "name": "amount",
          "type": "uint256"
        },
        {
          "internalType": "address",
          "name": "onBehalfOf",
          "type": "address"
        }
      ],
      "name": "borrow",
      "outputs": [],
      "stateMutability": "nonpayable",
      "type": "function"
    },
    {
      "inputs": [
        {
          "internalType": "address",
          "name": "project",
          "type": "address"
        },
        {
          "internalType": "address",
          "name": "asset",
          "type": "address"
        },
        {
          "internalType": "uint256",
          "name": "amount",
          "type": "uint256"
        },
        {
          "internalType": "address",
          "name": "onBehalfOf",
          "type": "address"
        }
      ],
      "name": "deposit",
      "outputs": [],
      "stateMutability": "nonpayable",
      "type": "function"
    },
    {
      "inputs": [
        {
          "internalType": "address",
          "name": "project",
          "type": "address"
        },
        {
          "internalType": "address",
          "name": "from",
          "type": "address"
        },
        {
          "internalType": "address",
          "name": "to",
          "type": "address"
        },
        {
          "internalType": "uint256",
          "name": "amount",
          "type": "uint256"
        },
        {
          "internalType": "uint256",
          "name": "balanceFromBefore",
          "type": "uint256"
        },
        {
          "internalType": "uint256",
          "name": "balanceToBefore",
          "type": "uint256"
        }
      ],
      "name": "finalizeTransfer",
      "outputs": [],
      "stateMutability": "nonpayable",
      "type": "function"
    },
    {
      "inputs": [
        {
          "internalType": "address",
          "name": "project",
          "type": "address"
        }
      ],
      "name": "getATokenAddress",
      "outputs": [
        {
          "internalType": "address",
          "name": "atoken",
          "type": "address"
        }
      ],
      "stateMutability": "view",
      "type": "function"
    },
    {
      "inputs": [],
      "name": "getAddressesProvider",
      "outputs": [
        {
          "internalType": "contract ILendingPoolAddressesProvider",
          "name": "",
          "type": "address"
        }
      ],
      "stateMutability": "view",
      "type": "function"
    },
    {
      "inputs": [
        {
          "internalType": "address",
          "name": "project",
          "type": "address"
        }
      ],
      "name": "getConfiguration",
      "outputs": [
        {
          "components": [
            {
              "internalType": "uint256",
              "name": "data",
              "type": "uint256"
            }
          ],
          "internalType": "struct DataTypes.ReserveConfigurationMap",
          "name": "",
          "type": "tuple"
        }
      ],
      "stateMutability": "view",
      "type": "function"
    },
    {
      "inputs": [
        {
          "internalType": "address",
          "name": "project",
          "type": "address"
        }
      ],
      "name": "getPTokenAddress",
      "outputs": [
        {
          "internalType": "address",
          "name": "ptoken",
          "type": "address"
        }
      ],
      "stateMutability": "view",
      "type": "function"
    },
    {
      "inputs": [
        {
          "internalType": "address",
          "name": "project",
          "type": "address"
        }
      ],
      "name": "getReserveData",
      "outputs": [
        {
          "components": [
            {
              "components": [
                {
                  "internalType": "uint256",
                  "name": "data",
                  "type": "uint256"
                }
              ],
              "internalType": "struct DataTypes.ReserveConfigurationMap",
              "name": "configuration",
              "type": "tuple"
            },
            {
              "internalType": "uint128",
              "name": "liquidityIndex",
              "type": "uint128"
            },
            {
              "internalType": "uint128",
              "name": "variableBorrowIndex",
              "type": "uint128"
            },
            {
              "internalType": "uint128",
              "name": "currentLiquidityRate",
              "type": "uint128"
            },
            {
              "internalType": "uint128",
              "name": "currentVariableBorrowRate",
              "type": "uint128"
            },
            {
              "internalType": "uint128",
              "name": "currentStableBorrowRate",
              "type": "uint128"
            },
            {
              "internalType": "uint40",
              "name": "lastUpdateTimestamp",
              "type": "uint40"
            },
            {
              "internalType": "address",
              "name": "aTokenAddress",
              "type": "address"
            },
            {
              "internalType": "address",
              "name": "stableDebtTokenAddress",
              "type": "address"
            },
            {
              "internalType": "address",
              "name": "variableDebtTokenAddress",
              "type": "address"
            },
            {
              "internalType": "address",
              "name": "interestRateStrategyAddress",
              "type": "address"
            },
            {
              "internalType": "uint8",
              "name": "id",
              "type": "uint8"
            },
            {
              "internalType": "address",
              "name": "underlyingAsset",
              "type": "address"
            },
            {
              "internalType": "address",
              "name": "projectBorrower",
              "type": "address"
            },
            {
              "internalType": "address",
              "name": "pTokenAddress",
              "type": "address"
            }
          ],
          "internalType": "struct DataTypes.ReserveData",
          "name": "",
          "type": "tuple"
        }
      ],
      "stateMutability": "view",
      "type": "function"
    },
    {
      "inputs": [
        {
          "internalType": "address",
          "name": "project",
          "type": "address"
        }
      ],
      "name": "getReserveNormalizedIncome",
      "outputs": [
        {
          "internalType": "uint256",
          "name": "",
          "type": "uint256"
        }
      ],
      "stateMutability": "view",
      "type": "function"
    },
    {
      "inputs": [
        {
          "internalType": "address",
          "name": "project",
          "type": "address"
        }
      ],
      "name": "getReserveNormalizedVariableDebt",
      "outputs": [
        {
          "internalType": "uint256",
          "name": "",
          "type": "uint256"
        }
      ],
      "stateMutability": "view",
      "type": "function"
    },
    {
      "inputs": [],
      "name": "getReservesList",
      "outputs": [
        {
          "internalType": "address[]",
          "name": "",
          "type": "address[]"
        }
      ],
      "stateMutability": "view",
      "type": "function"
    },
    {
      "inputs": [
        {
          "internalType": "address",
          "name": "project",
          "type": "address"
        }
      ],
      "name": "getUnderlyingAsset",
      "outputs": [
        {
          "internalType": "address",
          "name": "asset",
          "type": "address"
        }
      ],
      "stateMutability": "view",
      "type": "function"
    },
    {
      "inputs": [
        {
          "internalType": "address",
          "name": "user",
          "type": "address"
        }
      ],
      "name": "getUserConfiguration",
      "outputs": [
        {
          "components": [
            {
              "internalType": "uint256",
              "name": "data",
              "type": "uint256"
            }
          ],
          "internalType": "struct DataTypes.UserConfigurationMap",
          "name": "",
          "type": "tuple"
        }
      ],
      "stateMutability": "view",
      "type": "function"
    },
    {
      "inputs": [
        {
          "internalType": "address",
          "name": "project",
          "type": "address"
        },
        {
          "internalType": "address",
          "name": "asset",
          "type": "address"
        },
        {
          "internalType": "address",
          "name": "aTokenAddress",
          "type": "address"
        },
        {
          "internalType": "address",
          "name": "stableDebtAddress",
          "type": "address"
        },
        {
          "internalType": "address",
          "name": "variableDebtAddress",
          "type": "address"
        },
        {
          "internalType": "address",
          "name": "interestRateStrategyAddress",
          "type": "address"
        },
        {
          "internalType": "address",
          "name": "projectBorrower",
          "type": "address"
        }
      ],
      "name": "initReserve",
      "outputs": [],
      "stateMutability": "nonpayable",
      "type": "function"
    },
    {
      "inputs": [
        {
          "internalType": "contract ILendingPoolAddressesProvider",
          "name": "provider",
          "type": "address"
        }
      ],
      "name": "initialize",
      "outputs": [],
      "stateMutability": "nonpayable",
      "type": "function"
    },
    {
      "inputs": [],
      "name": "paused",
      "outputs": [
        {
          "internalType": "bool",
          "name": "",
          "type": "bool"
        }
      ],
      "stateMutability": "view",
      "type": "function"
    },
    {
      "inputs": [
        {
          "internalType": "address",
          "name": "project",
          "type": "address"
        },
        {
          "internalType": "address",
          "name": "asset",
          "type": "address"
        },
        {
          "internalType": "uint256",
          "name": "amount",
          "type": "uint256"
        },
        {
          "internalType": "address",
          "name": "onBehalfOf",
          "type": "address"
        }
      ],
      "name": "repay",
      "outputs": [
        {
          "internalType": "uint256",
          "name": "",
          "type": "uint256"
        }
      ],
      "stateMutability": "nonpayable",
      "type": "function"
    },
    {
      "inputs": [
        {
          "internalType": "address",
          "name": "project",
          "type": "address"
        },
        {
          "internalType": "uint256",
          "name": "configuration",
          "type": "uint256"
        }
      ],
      "name": "setConfiguration",
      "outputs": [],
      "stateMutability": "nonpayable",
      "type": "function"
    },
    {
      "inputs": [
        {
          "internalType": "bool",
          "name": "val",
          "type": "bool"
        }
      ],
      "name": "setPause",
      "outputs": [],
      "stateMutability": "nonpayable",
      "type": "function"
    },
    {
      "inputs": [
        {
          "internalType": "address",
          "name": "project",
          "type": "address"
        },
        {
          "internalType": "address",
          "name": "rateStrategyAddress",
          "type": "address"
        }
      ],
      "name": "setReserveInterestRateStrategyAddress",
      "outputs": [],
      "stateMutability": "nonpayable",
      "type": "function"
    },
    {
      "inputs": [
        {
          "internalType": "address",
          "name": "project",
          "type": "address"
        },
        {
          "internalType": "uint128",
          "name": "newDepositRate",
          "type": "uint128"
        },
        {
          "internalType": "uint128",
          "name": "newBorrowRate",
          "type": "uint128"
        }
      ],
      "name": "updateInterestRates",
      "outputs": [],
      "stateMutability": "nonpayable",
      "type": "function"
    },
    {
      "inputs": [
        {
          "internalType": "address",
          "name": "project",
          "type": "address"
        },
        {
          "internalType": "address",
          "name": "projectBorrower",
          "type": "address"
        }
      ],
      "name": "updateProjectBorrower",
      "outputs": [],
      "stateMutability": "nonpayable",
      "type": "function"
    },
    {
      "inputs": [
        {
          "internalType": "address",
          "name": "project",
          "type": "address"
        },
        {
          "internalType": "address",
          "name": "asset",
          "type": "address"
        },
        {
          "internalType": "uint256",
          "name": "amount",
          "type": "uint256"
        },
        {
          "internalType": "address",
          "name": "to",
          "type": "address"
        }
      ],
      "name": "withdraw",
      "outputs": [
        {
          "internalType": "uint256",
          "name": "",
          "type": "uint256"
        }
      ],
      "stateMutability": "nonpayable",
      "type": "function"
    },
    {
      "inputs": [
        {
          "internalType": "address",
          "name": "project",
          "type": "address"
        },
        {
          "internalType": "address",
          "name": "asset",
          "type": "address"
        },
        {
          "internalType": "uint256",
          "name": "amount",
          "type": "uint256"
        },
        {
          "internalType": "address",
          "name": "to",
          "type": "address"
        }
      ],
      "name": "withdrawInterest",
      "outputs": [
        {
          "internalType": "uint256",
          "name": "",
          "type": "uint256"
        }
      ],
      "stateMutability": "nonpayable",
      "type": "function"
    }
  ],
  "bytecode": "0x60806040526000805534801561001457600080fd5b50613233806100246000396000f3fe608060405234801561001057600080fd5b50600436106101c45760003560e01c80638afaff02116100f9578063d5ed393311610097578063e8689daa11610071578063e8689daa146103b3578063f3d2398a146103c6578063f8119d51146103d9578063fe65acfe146103e1576101c4565b8063d5ed393314610385578063e5cd487f14610398578063e82fec2f146103ab576101c4565b8063c44b11f7116100d3578063c44b11f714610337578063c4d66de81461034a578063d15e00531461035d578063d1946dbc14610370576101c4565b80638afaff0214610309578063b8d2927614610311578063bedb86fb14610324576101c4565b80633bc1f1ed1161016657806352da17a41161014057806352da17a4146102ae5780635c975abb146102c1578063697efd22146102d6578063711cc005146102f6576101c4565b80633bc1f1ed146102685780633f8fd6af1461027b5780634417a5831461028e576101c4565b80631d2118f9116101a25780631d2118f91461020f578063291e4f0a1461022257806335ea6a7514610235578063386497fd14610255576101c4565b8063074b2e43146101c95780630e917f76146101e757806313c0d54f146101fa575b600080fd5b6101d16103e9565b6040516101de9190613190565b60405180910390f35b6101d16101f5366004612a93565b6103ef565b61020d610208366004612ae5565b6106ad565b005b61020d61021d366004612962565b6106e8565b61020d61023036600461299a565b610721565b61024861024336600461292a565b61084c565b6040516101de9190612f9c565b6101d161026336600461292a565b610955565b61020d610276366004612a93565b61097c565b6101d1610289366004612a93565b610b72565b6102a161029c36600461292a565b610da9565b6040516101de9190612f92565b6101d16102bc366004612a93565b610ddc565b6102c9611138565b6040516101de9190612dd8565b6102e96102e436600461292a565b611141565b6040516101de9190612c35565b6102e961030436600461292a565b611162565b6101d1611183565b61020d61031f366004612b2f565b611188565b61020d610332366004612b5a565b6111ac565b6102a161034536600461292a565b611227565b61020d61035836600461292a565b61125a565b6101d161036b36600461292a565b611303565b610378611324565b6040516101de9190612d8b565b61020d610393366004612a2f565b6113c9565b61020d6103a6366004612a93565b611556565b6101d1611618565b6102e96103c136600461292a565b61161e565b61020d6103d4366004612962565b61163f565b6101d1611683565b6102e9611689565b603b5490565b60006103f9611698565b6001600160a01b03858116600090815260356020908152604091829020600881015483518085019094526002845261383160f01b92840192909252928781169116146104615760405162461bcd60e51b81526004016104589190612de3565b60405180910390fd5b506004808201546040516370a0823160e01b81526001600160a01b039091169160009183916370a082319161049891339101612c35565b60206040518083038186803b1580156104b057600080fd5b505afa1580156104c4573d6000803e3d6000fd5b505050506040513d601f19601f820116820180604052508101906104e89190612b92565b9050856000198114156104f85750805b60405163080f482960e41b815273__$de8c0cf1a7d7c36c802af9a64fb9d86036$__906380f4829090610536908c9085908790603590600401612d65565b60006040518083038186803b15801561054e57600080fd5b505af4158015610562573d6000803e3d6000fd5b5050505061056f846116d6565b818114156105d95760078401543360009081526036602052604081206105a2929091600160a01b90910460ff16906117a3565b60405133906001600160a01b038a16907f44c58d81365b66dd4b1a7f36c25aa97b8c71c361ee4937adc1a00000227db5dd90600090a35b6001840154604051636b81068560e11b81526001600160a01b0385169163d7020d0a9161061a9133918b9187916001600160801b0390911690600401612c49565b600060405180830381600087803b15801561063457600080fd5b505af1158015610648573d6000803e3d6000fd5b50505050856001600160a01b0316336001600160a01b03168a6001600160a01b03167f3115d1449a7b732c986cba18244e897a450f61e1bb8d589cd2e69e6c8924f9f7846040516106999190613190565b60405180910390a498975050505050505050565b6106b5611819565b6001600160a01b03831660009081526035602052604090206106d9818585856118d8565b6106e2816116d6565b50505050565b6106f0611819565b6001600160a01b03918216600090815260356020526040902060070180546001600160a01b03191691909216179055565b610729611819565b610732876119f6565b6040518060400160405280600281526020016106e760f31b8152509061076b5760405162461bcd60e51b81526004016104589190612de3565b50610775866119f6565b6040518060400160405280600281526020016106e760f31b815250906107ae5760405162461bcd60e51b81526004016104589190612de3565b506001600160a01b0387166000908152603560205260409081902090516318d8331560e11b815273__$22cd43a9dda9ce44e9b92ba393b88fb9ac$__916331b0662a9161080a91908a908a908a908a908a908a906004016130ce565b60006040518083038186803b15801561082257600080fd5b505af4158015610836573d6000803e3d6000fd5b5050505061084387611a32565b50505050505050565b610854612833565b506001600160a01b0381811660009081526035602090815260409182902082516102008101845281546101e08201908152815260018201546001600160801b0380821694830194909452600160801b908190048416948201949094526002820154808416606083015284900483166080820152600382015492831660a08201529290910464ffffffffff1660c08301526004810154831660e083015260058101548316610100830152600681015483166101208301526007810154808416610140840152600160a01b900460ff1661016083015260088101548316610180830152600981015483166101a0830152600a01549091166101c08201525b919050565b6001600160a01b038116600090815260356020526040812061097690611b3b565b92915050565b610984611698565b6001600160a01b03848116600090815260356020908152604091829020600881015483518085019094526002845261383160f01b92840192909252928681169116146109e35760405162461bcd60e51b81526004016104589190612de3565b50604051630eca322b60e01b815273__$de8c0cf1a7d7c36c802af9a64fb9d86036$__90630eca322b90610a1d908490879060040161310b565b60006040518083038186803b158015610a3557600080fd5b505af4158015610a49573d6000803e3d6000fd5b5050506004820154600a8301546001600160a01b03918216925016610a6d836116d6565b610a826001600160a01b038716338488611bb0565b6001830154604051630ab714fb60e11b81526001600160a01b0384169163156e29f691610abf9188918a916001600160801b031690600401612d1a565b602060405180830381600087803b158015610ad957600080fd5b505af1158015610aed573d6000803e3d6000fd5b505050506040513d601f19601f82011682018060405250810190610b119190612b76565b50836001600160a01b0316866001600160a01b0316886001600160a01b03167fa856e8f098813135735b4d4f52d96083d1dbb35fd5603ff424661413f59c28103389604051610b61929190612c7a565b60405180910390a450505050505050565b6000610b7c611698565b6001600160a01b03858116600090815260356020908152604091829020600881015483518085019094526002845261383160f01b9284019290925292878116911614610bdb5760405162461bcd60e51b81526004016104589190612de3565b5060048082015460405163f9b394b360e01b81526001600160a01b0390911691600091839163f9b394b391610c1291339101612c35565b60206040518083038186803b158015610c2a57600080fd5b505afa158015610c3e573d6000803e3d6000fd5b505050506040513d601f19601f82011682018060405250810190610c629190612b92565b905085600019811415610c725750805b60405163e703960b60e01b815273__$de8c0cf1a7d7c36c802af9a64fb9d86036$__9063e703960b90610cb0908c9085908790603590600401612d65565b60006040518083038186803b158015610cc857600080fd5b505af4158015610cdc573d6000803e3d6000fd5b50505050610ce9846116d6565b6001840154604051636b81068560e11b81526001600160a01b0385169163d7020d0a91610d2a9133918b9187916001600160801b0390911690600401612c49565b600060405180830381600087803b158015610d4457600080fd5b505af1158015610d58573d6000803e3d6000fd5b50505050856001600160a01b0316336001600160a01b03168a6001600160a01b03167f33b07ffed5575bb52b40be8a39928028a477ed73f879528887b967baf045c32a846040516106999190613190565b610db16128b6565b506001600160a01b031660009081526036602090815260409182902082519182019092529054815290565b6000610de6611698565b6001600160a01b03858116600090815260356020908152604091829020600881015483518085019094526002845261383160f01b9284019290925292878116911614610e455760405162461bcd60e51b81526004016104589190612de3565b50600080610e538584611c08565b60405163fa0c214960e01b8152919350915060019073__$de8c0cf1a7d7c36c802af9a64fb9d86036$__9063fa0c214990610e9c9087908b9086908c908a908a90600401613119565b60006040518083038186803b158015610eb457600080fd5b505af4158015610ec8573d6000803e3d6000fd5b506000925060019150610ed89050565b826002811115610ee457fe5b14610eef5782610ef1565b835b905080881015610efe5750865b610f07856116d6565b6001826002811115610f1557fe5b1415610f86576005850154604051632770a7eb60e21b81526001600160a01b0390911690639dc29fac90610f4f908a908590600401612c7a565b600060405180830381600087803b158015610f6957600080fd5b505af1158015610f7d573d6000803e3d6000fd5b50505050611004565b60068501546001860154604051637a94c56560e11b81526001600160a01b039092169163f5298aca91610fd1918b918691600160801b9091046001600160801b031690600401612d1a565b600060405180830381600087803b158015610feb57600080fd5b505af1158015610fff573d6000803e3d6000fd5b505050505b60048501546001600160a01b0316611026826110208787611d1c565b90611d48565b61105e5760078601546001600160a01b038916600090815260366020526040812061105e929091600160a01b90910460ff1690611d8a565b6110736001600160a01b038b16338385611bb0565b6040516388dd91a160e01b81526001600160a01b038216906388dd91a1906110a19033908690600401612c7a565b600060405180830381600087803b1580156110bb57600080fd5b505af11580156110cf573d6000803e3d6000fd5b50505050336001600160a01b03168a6001600160a01b03168c6001600160a01b03167f15e061f85ae0cc955acf34c814a39567895400d498e2e52faa1fbe370bbe46f28b86604051611122929190612c7a565b60405180910390a4509998505050505050505050565b60395460ff1690565b6001600160a01b039081166000908152603560205260409020600a01541690565b6001600160a01b039081166000908152603560205260409020600401541690565b600281565b611190611819565b6001600160a01b03909116600090815260356020526040902055565b6111b4611819565b6039805460ff1916821515179081905560ff16156111fa576040517f9e87fac88ff661f02d44f95383c817fece4bce600a3dab7a54406878b965e75290600090a1611224565b6040517fa45f47fdea8a1efdd9029a5691c7f759c32b7c698632b563573e155625d1693390600090a15b50565b61122f6128b6565b506001600160a01b031660009081526035602090815260409182902082519182019092529054815290565b6000611264611dfa565b60015490915060ff168061127b575061127b611dff565b80611287575060005481115b6112a35760405162461bcd60e51b815260040161045890612ec3565b60015460ff161580156112c2576001805460ff19168117905560008290555b603480546001600160a01b0319166001600160a01b0385161790556109c4603a556009603b556080603c5580156112fe576001805460ff191690555b505050565b6001600160a01b038116600090815260356020526040812061097690611e05565b60608060385467ffffffffffffffff8111801561134057600080fd5b5060405190808252806020026020018201604052801561136a578160200160208202803683370190505b50905060005b6038548110156113c35760008181526037602052604090205482516001600160a01b03909116908390839081106113a357fe5b6001600160a01b0390921660209283029190910190910152600101611370565b50905090565b6113d1611698565b6001600160a01b038681166000908152603560209081526040918290206004015482518084019093526002835261363360f01b91830191909152909116331461142d5760405162461bcd60e51b81526004016104589190612de3565b506001600160a01b03868116600090815260356020526040902060070154600160a01b900460ff1690858116908716146108435761146b8385611d48565b6114d7576001600160a01b03861660009081526036602052604081209061149590829084906117a3565b866001600160a01b0316886001600160a01b03167f44c58d81365b66dd4b1a7f36c25aa97b8c71c361ee4937adc1a00000227db5dd60405160405180910390a3505b811580156114e457508315155b15610843576001600160a01b038516600090815260366020526040902061150d818360016117a3565b856001600160a01b0316886001600160a01b03167e058a56ea94653cdf4f152d227ace22d4c00ad99e2a43f58cb7d9e3feb295f260405160405180910390a35050505050505050565b61155e611698565b6001600160a01b03848116600090815260356020908152604091829020600881015483518085019094526002845261383160f01b92840192909252928681169116146115bd5760405162461bcd60e51b81526004016104589190612de3565b506040805160e0810182526001600160a01b03808816825286811660208301523392820192909252838216606082015260808101859052600483015490911660a0820152600160c082015261161190611e64565b5050505050565b603a5490565b6001600160a01b039081166000908152603560205260409020600801541690565b611647611819565b6001600160a01b0382811660009081526035602052604090206009810180546001600160a01b031916928416929092179091556112fe816116d6565b603c5490565b6034546001600160a01b031690565b6039546040805180820190915260028152610d8d60f21b60208201529060ff16156112245760405162461bcd60e51b81526004016104589190612de3565b60068101546040805163b1bf962d60e01b815290516000926001600160a01b03169163b1bf962d916004808301926020929190829003018186803b15801561171d57600080fd5b505afa158015611731573d6000803e3d6000fd5b505050506040513d601f19601f820116820180604052508101906117559190612b92565b60018301546003840154919250600160801b8082046001600160801b03908116939216910464ffffffffff166000806117918787868887612176565b915091506108438787878585886122d3565b604080518082019091526002815261373760f01b6020820152608083106117dd5760405162461bcd60e51b81526004016104589190612de3565b5081600202600101816117f15760006117f4565b60015b60ff16901b826002026001016001901b19846000015416178360000181905550505050565b603454604080516385c858b160e01b8152905133926001600160a01b0316916385c858b1916004808301926020929190829003018186803b15801561185d57600080fd5b505afa158015611871573d6000803e3d6000fd5b505050506040513d601f19601f820116820180604052508101906118959190612946565b6001600160a01b03161460405180604001604052806002815260200161323760f01b815250906112245760405162461bcd60e51b81526004016104589190612de3565b604080518082019091526002815261353360f01b60208201526001600160801b03838116111561191b5760405162461bcd60e51b81526004016104589190612de3565b50604080518082019091526002815261353560f01b60208201526001600160801b03828116111561195f5760405162461bcd60e51b81526004016104589190612de3565b506002840180546003860180546001600160801b03199081166001600160801b038681169182179093559216858216178116600160801b9283021790925560018601546040516001600160a01b038716937f804c9b842b2748a22bb64b345453a3de7ca54a6ca45ce00d415894979e22897a936119e8938893889384938382169304169061315e565b60405180910390a250505050565b6000813f7fc5d2460186f7233c927e7db2dcc703c0e500b653ca82273b7bfad8045d85a470818114801590611a2a57508115155b949350505050565b603854603c54604080518082019091526002815261363560f01b6020820152908210611a715760405162461bcd60e51b81526004016104589190612de3565b506001600160a01b038216600090815260356020526040812060070154600160a01b900460ff16151580611ada57506000805260376020527fa0a618d80eda9243166be83cb7421d97e9dab6ddddd3c70ac7a6b4440256e8e7546001600160a01b038481169116145b9050806112fe57506001600160a01b03919091166000818152603560209081526040808320600701805460ff60a01b1916600160a01b60ff8816021790558483526037909152902080546001600160a01b0319169091179055600101603855565b600381015460009064ffffffffff600160801b9091048116904216811415611b795750506001810154600160801b90046001600160801b0316610950565b60018301546002840154600091611a2a916001600160801b03600160801b92839004811692611baa920416856124a4565b906124b1565b6106e2846323b872dd60e01b858585604051602401611bd193929190612c93565b60408051601f198184030181529190526020810180516001600160e01b03166001600160e01b031990931692909217909152612544565b60058101546040516370a0823160e01b815260009182916001600160a01b03909116906370a0823190611c3f908790600401612c35565b60206040518083038186803b158015611c5757600080fd5b505afa158015611c6b573d6000803e3d6000fd5b505050506040513d601f19601f82011682018060405250810190611c8f9190612b92565b60068401546040516370a0823160e01b81526001600160a01b03909116906370a0823190611cc1908890600401612c35565b60206040518083038186803b158015611cd957600080fd5b505afa158015611ced573d6000803e3d6000fd5b505050506040513d601f19601f82011682018060405250810190611d119190612b92565b915091509250929050565b600082820183811015611d415760405162461bcd60e51b815260040161045890612e16565b9392505050565b6000611d4183836040518060400160405280601e81526020017f536166654d6174683a207375627472616374696f6e206f766572666c6f770000815250612629565b604080518082019091526002815261373760f01b602082015260808310611dc45760405162461bcd60e51b81526004016104589190612de3565b508160020281611dd5576000611dd8565b60015b60ff16901b826002026001901b19846000015416178360000181905550505050565b600290565b303b1590565b600381015460009064ffffffffff600160801b9091048116904216811415611e3c57505060018101546001600160801b0316610950565b60018301546002840154600091611a2a916001600160801b0391821691611baa911685612655565b80516001600160a01b039081166000908152603560209081526040808320606086018051861685526036845293829020838701519451608088015160098401546034548651636ee554f560e11b815296519599949873__$de8c0cf1a7d7c36c802af9a64fb9d86036$__9863329d4d579891978c9794851694939093169263ddcaa9ea926004808201939291829003018186803b158015611f0457600080fd5b505afa158015611f18573d6000803e3d6000fd5b505050506040513d601f19601f82011682018060405250810190611f3c9190612946565b6040518763ffffffff1660e01b8152600401611f5d96959493929190612ce0565b60006040518083038186803b158015611f7557600080fd5b505af4158015611f89573d6000803e3d6000fd5b50505050611f96826116d6565b6003820154600583015460408086015160608701516080880151925163b3f1c93d60e01b81526001600160801b03909516946000946001600160a01b03169363b3f1c93d93611fee9390929091908890600401612cb7565b602060405180830381600087803b15801561200857600080fd5b505af115801561201c573d6000803e3d6000fd5b505050506040513d601f19601f820116820180604052508101906120409190612b76565b90508015612064576007840154612064908490600160a01b900460ff166001611d8a565b8460c0015115612102578460a001516001600160a01b0316639c60d0f68660200151876040015188608001516040518463ffffffff1660e01b81526004016120ae93929190612c93565b602060405180830381600087803b1580156120c857600080fd5b505af11580156120dc573d6000803e3d6000fd5b505050506040513d601f19601f820116820180604052508101906121009190612b92565b505b84606001516001600160a01b031685602001516001600160a01b031686600001516001600160a01b03167ff0d08ddf09572cb350fab56a3b6227f9826c02afb0266f3b26700df2eacb8a2f886040015189608001518760405161216793929190612d44565b60405180910390a45050505050565b600285015460009081906001600160801b0316858582156122a457600061219d8488612655565b90506121a9818a6124b1565b604080518082019091526002815261353160f01b60208201529093506001600160801b038411156121ed5760405162461bcd60e51b81526004016104589190612de3565b5060018b0180546001600160801b0319166001600160801b03851617905589156122a25760028b015460009061223390600160801b90046001600160801b0316896124a4565b905061223f818a6124b1565b6040805180820190915260028152611a9960f11b60208201529093506001600160801b038411156122835760405162461bcd60e51b81526004016104589190612de3565b505060018b0180546001600160801b03808516600160801b0291161790555b505b600399909901805464ffffffffff60801b1916600160801b4264ffffffffff1602179055989650505050505050565b6122db6128c9565b6122e487612693565b61012082018190526122f6575061249c565b8660050160009054906101000a90046001600160a01b03166001600160a01b031663797743386040518163ffffffff1660e01b815260040160806040518083038186803b15801561234657600080fd5b505afa15801561235a573d6000803e3d6000fd5b505050506040513d601f19601f8201168201806040525081019061237e9190612baa565b64ffffffffff1661014085015260a0840152825260208201526123a186866124b1565b60808201526123b086846124b1565b606082015260a08101516101408201516123d2919064ffffffffff851661269e565b60c0820181905260208201516123e7916124b1565b6040820181905260808201518251606084015161240c93926110209290918391611d1c565b60e08201819052610120820151612423919061277a565b61010082018190521561084357600480880154610100830151604051637df5bd3b60e01b81526001600160a01b0390921692637df5bd3b92612468929189910161310b565b600060405180830381600087803b15801561248257600080fd5b505af1158015612496573d6000803e3d6000fd5b50505050505b505050505050565b6000611d4183834261269e565b60008215806124be575081155b156124cb57506000610976565b816b019d971e4fe8401e7400000019816124e157fe5b0483111560405180604001604052806002815260200161068760f31b8152509061251e5760405162461bcd60e51b81526004016104589190612de3565b506b033b2e3c9fd0803ce80000006002815b04838502018161253c57fe5b049392505050565b612556826001600160a01b03166119f6565b6125725760405162461bcd60e51b815260040161045890612f5b565b60006060836001600160a01b03168360405161258e9190612c19565b6000604051808303816000865af19150503d80600081146125cb576040519150601f19603f3d011682016040523d82523d6000602084013e6125d0565b606091505b5091509150816125f25760405162461bcd60e51b815260040161045890612e4d565b8051156106e2578080602001905181019061260d9190612b76565b6106e25760405162461bcd60e51b815260040161045890612f11565b6000818484111561264d5760405162461bcd60e51b81526004016104589190612de3565b505050900390565b6000806126694264ffffffffff8516611d48565b9050611a2a6126766127e9565b6301e1338061268587856127f9565b8161268c57fe5b0490611d1c565b5460401c61ffff1690565b6000806126b28364ffffffffff8616611d48565b9050806126c9576126c16127e9565b915050611d41565b60001981016000600283116126df5760006126e4565b600283035b90506301e13380870460006126f982806124b1565b9050600061270782846124b1565b9050600060026127218461271b8a8a6127f9565b906127f9565b8161272857fe5b0490506000600661273f8461271b89818d8d6127f9565b8161274657fe5b04905061276a81612764848161275c8a8e6127f9565b6127646127e9565b90611d1c565b9c9b505050505050505050505050565b6000821580612787575081155b1561279457506000610976565b8161138819816127a057fe5b0483111560405180604001604052806002815260200161068760f31b815250906127dd5760405162461bcd60e51b81526004016104589190612de3565b50612710600281612530565b6b033b2e3c9fd0803ce800000090565b60008261280857506000610976565b8282028284828161281557fe5b0414611d415760405162461bcd60e51b815260040161045890612e82565b604051806101e001604052806128476128b6565b815260006020820181905260408201819052606082018190526080820181905260a0820181905260c0820181905260e08201819052610100820181905261012082018190526101408201819052610160820181905261018082018190526101a082018190526101c09091015290565b6040518060200160405280600081525090565b60405180610160016040528060008152602001600081526020016000815260200160008152602001600081526020016000815260200160008152602001600081526020016000815260200160008152602001600064ffffffffff1681525090565b60006020828403121561293b578081fd5b8135611d41816131c5565b600060208284031215612957578081fd5b8151611d41816131c5565b60008060408385031215612974578081fd5b823561297f816131c5565b9150602083013561298f816131c5565b809150509250929050565b600080600080600080600060e0888a0312156129b4578283fd5b87356129bf816131c5565b965060208801356129cf816131c5565b955060408801356129df816131c5565b945060608801356129ef816131c5565b935060808801356129ff816131c5565b925060a0880135612a0f816131c5565b915060c0880135612a1f816131c5565b8091505092959891949750929550565b60008060008060008060c08789031215612a47578182fd5b8635612a52816131c5565b95506020870135612a62816131c5565b94506040870135612a72816131c5565b959894975094956060810135955060808101359460a0909101359350915050565b60008060008060808587031215612aa8578384fd5b8435612ab3816131c5565b93506020850135612ac3816131c5565b9250604085013591506060850135612ada816131c5565b939692955090935050565b600080600060608486031215612af9578283fd5b8335612b04816131c5565b92506020840135612b14816131e8565b91506040840135612b24816131e8565b809150509250925092565b60008060408385031215612b41578182fd5b8235612b4c816131c5565b946020939093013593505050565b600060208284031215612b6b578081fd5b8135611d41816131da565b600060208284031215612b87578081fd5b8151611d41816131da565b600060208284031215612ba3578081fd5b5051919050565b60008060008060808587031215612bbf578182fd5b845193506020850151925060408501519150606085015164ffffffffff81168114612ada578182fd5b6001600160a01b03169052565b519052565b6001600160801b03169052565b64ffffffffff169052565b60ff169052565b60008251612c2b818460208701613199565b9190910192915050565b6001600160a01b0391909116815260200190565b6001600160a01b03948516815292909316602083015260408201526001600160801b03909116606082015260800190565b6001600160a01b03929092168252602082015260400190565b6001600160a01b039384168152919092166020820152604081019190915260600190565b6001600160a01b0394851681529290931660208301526040820152606081019190915260800190565b6001600160a01b0396871681526020810195909552928516604085015260608401919091528316608083015290911660a082015260c00190565b6001600160a01b0393909316835260208301919091526001600160801b0316604082015260600190565b6001600160a01b039390931683526020830191909152604082015260600190565b6001600160a01b0394909416845260208401929092526040830152606082015260800190565b6020808252825182820181905260009190848201906040850190845b81811015612dcc5783516001600160a01b031683529284019291840191600101612da7565b50909695505050505050565b901515815260200190565b6000602082528251806020840152612e02816040850160208701613199565b601f01601f19169190910160400192915050565b6020808252601b908201527f536166654d6174683a206164646974696f6e206f766572666c6f770000000000604082015260600190565b6020808252818101527f5361666545524332303a206c6f772d6c6576656c2063616c6c206661696c6564604082015260600190565b60208082526021908201527f536166654d6174683a206d756c7469706c69636174696f6e206f766572666c6f6040820152607760f81b606082015260800190565b6020808252602e908201527f436f6e747261637420696e7374616e63652068617320616c726561647920626560408201526d195b881a5b9a5d1a585b1a5e995960921b606082015260800190565b6020808252602a908201527f5361666545524332303a204552433230206f7065726174696f6e20646964206e6040820152691bdd081cdd58d8d9595960b21b606082015260800190565b6020808252601f908201527f5361666545524332303a2063616c6c20746f206e6f6e2d636f6e747261637400604082015260600190565b9051815260200190565b60006101e082019050612fb0828451612bf5565b6020830151612fc26020840182612bfa565b506040830151612fd56040840182612bfa565b506060830151612fe86060840182612bfa565b506080830151612ffb6080840182612bfa565b5060a083015161300e60a0840182612bfa565b5060c083015161302160c0840182612c07565b5060e083015161303460e0840182612be8565b506101008084015161304882850182612be8565b50506101208084015161305d82850182612be8565b50506101408084015161307282850182612be8565b50506101608084015161308782850182612c12565b50506101808084015161309c82850182612be8565b50506101a0808401516130b182850182612be8565b50506101c0808401516130c682850182612be8565b505092915050565b9687526001600160a01b0395861660208801529385166040870152918416606086015283166080850152821660a08401521660c082015260e00190565b918252602082015260400190565b8681526020810186905260c081016003861061313157fe5b60408201959095526001600160a01b03939093166060840152608083019190915260a09091015292915050565b6001600160801b0395861681529385166020850152918416604084015283166060830152909116608082015260a00190565b90815260200190565b60005b838110156131b457818101518382015260200161319c565b838111156106e25750506000910152565b6001600160a01b038116811461122457600080fd5b801515811461122457600080fd5b6001600160801b038116811461122457600080fdfea2646970667358221220dd5167a204433b34d64b512f5e6ef988c1208beeb170edd49c8e1e0bc9e9e1c764736f6c634300060c0033",
  "linkReferences": {
    "contracts/protocol/libraries/logic/ReserveLogic.sol": {
      "ReserveLogic": [
        {
          "length": 20,
          "start": 2043
        }
      ]
    },
    "contracts/protocol/libraries/logic/ValidationLogic.sol": {
      "ValidationLogic": [
        {
          "length": 20,
          "start": 1323
        },
        {
          "length": 20,
          "start": 2583
        },
        {
          "length": 20,
          "start": 3237
        },
        {
          "length": 20,
          "start": 3726
        },
        {
          "length": 20,
          "start": 7903
        }
      ]
    }
  },
  "deployedLinkReferences": {
    "contracts/protocol/libraries/logic/ReserveLogic.sol": {
      "ReserveLogic": [
        {
          "length": 20,
          "start": 2007
        }
      ]
    },
    "contracts/protocol/libraries/logic/ValidationLogic.sol": {
      "ValidationLogic": [
        {
          "length": 20,
          "start": 1287
        },
        {
          "length": 20,
          "start": 2547
        },
        {
          "length": 20,
          "start": 3201
        },
        {
          "length": 20,
          "start": 3690
        },
        {
          "length": 20,
          "start": 7867
        }
      ]
    }
  }
}