{
  "_format": "hh-sol-artifact-1",
  "contractName": "LendingPool",
  "sourceName": "contracts/protocol/lendingpool/LendingPool.sol",
  "abi": [
    {
      "anonymous": false,
      "inputs": [
        {
          "indexed": true,
          "internalType": "address",
          "name": "project",
          "type": "address"
        },
        {
          "indexed": true,
          "internalType": "address",
          "name": "asset",
          "type": "address"
        },
        {
          "indexed": false,
          "internalType": "address",
          "name": "user",
          "type": "address"
        },
        {
          "indexed": true,
          "internalType": "address",
          "name": "onBehalfOf",
          "type": "address"
        },
        {
          "indexed": false,
          "internalType": "uint256",
          "name": "amount",
          "type": "uint256"
        },
        {
          "indexed": false,
          "internalType": "uint256",
          "name": "borrowRate",
          "type": "uint256"
        }
      ],
      "name": "Borrow",
      "type": "event"
    },
    {
      "anonymous": false,
      "inputs": [
        {
          "indexed": true,
          "internalType": "address",
          "name": "project",
          "type": "address"
        },
        {
          "indexed": true,
          "internalType": "address",
          "name": "asset",
          "type": "address"
        },
        {
          "indexed": false,
          "internalType": "address",
          "name": "user",
          "type": "address"
        },
        {
          "indexed": true,
          "internalType": "address",
          "name": "onBehalfOf",
          "type": "address"
        },
        {
          "indexed": false,
          "internalType": "uint256",
          "name": "amount",
          "type": "uint256"
        }
      ],
      "name": "Deposit",
      "type": "event"
    },
    {
      "anonymous": false,
      "inputs": [
        {
          "indexed": true,
          "internalType": "address",
          "name": "target",
          "type": "address"
        },
        {
          "indexed": true,
          "internalType": "address",
          "name": "initiator",
          "type": "address"
        },
        {
          "indexed": true,
          "internalType": "address",
          "name": "asset",
          "type": "address"
        },
        {
          "indexed": false,
          "internalType": "uint256",
          "name": "amount",
          "type": "uint256"
        },
        {
          "indexed": false,
          "internalType": "uint256",
          "name": "premium",
          "type": "uint256"
        },
        {
          "indexed": false,
          "internalType": "uint16",
          "name": "referralCode",
          "type": "uint16"
        }
      ],
      "name": "FlashLoan",
      "type": "event"
    },
    {
      "anonymous": false,
      "inputs": [
        {
          "indexed": true,
          "internalType": "address",
          "name": "collateralAsset",
          "type": "address"
        },
        {
          "indexed": true,
          "internalType": "address",
          "name": "debtAsset",
          "type": "address"
        },
        {
          "indexed": true,
          "internalType": "address",
          "name": "user",
          "type": "address"
        },
        {
          "indexed": false,
          "internalType": "uint256",
          "name": "debtToCover",
          "type": "uint256"
        },
        {
          "indexed": false,
          "internalType": "uint256",
          "name": "liquidatedCollateralAmount",
          "type": "uint256"
        },
        {
          "indexed": false,
          "internalType": "address",
          "name": "liquidator",
          "type": "address"
        },
        {
          "indexed": false,
          "internalType": "bool",
          "name": "receiveAToken",
          "type": "bool"
        }
      ],
      "name": "LiquidationCall",
      "type": "event"
    },
    {
      "anonymous": false,
      "inputs": [],
      "name": "Paused",
      "type": "event"
    },
    {
      "anonymous": false,
      "inputs": [
        {
          "indexed": true,
          "internalType": "address",
          "name": "reserve",
          "type": "address"
        },
        {
          "indexed": true,
          "internalType": "address",
          "name": "user",
          "type": "address"
        }
      ],
      "name": "RebalanceStableBorrowRate",
      "type": "event"
    },
    {
      "anonymous": false,
      "inputs": [
        {
          "indexed": true,
          "internalType": "address",
          "name": "project",
          "type": "address"
        },
        {
          "indexed": true,
          "internalType": "address",
          "name": "reserve",
          "type": "address"
        },
        {
          "indexed": false,
          "internalType": "address",
          "name": "user",
          "type": "address"
        },
        {
          "indexed": true,
          "internalType": "address",
          "name": "repayer",
          "type": "address"
        },
        {
          "indexed": false,
          "internalType": "uint256",
          "name": "amount",
          "type": "uint256"
        }
      ],
      "name": "Repay",
      "type": "event"
    },
    {
      "anonymous": false,
      "inputs": [
        {
          "indexed": true,
          "internalType": "address",
          "name": "reserve",
          "type": "address"
        },
        {
          "indexed": false,
          "internalType": "uint256",
          "name": "liquidityRate",
          "type": "uint256"
        },
        {
          "indexed": false,
          "internalType": "uint256",
          "name": "stableBorrowRate",
          "type": "uint256"
        },
        {
          "indexed": false,
          "internalType": "uint256",
          "name": "variableBorrowRate",
          "type": "uint256"
        },
        {
          "indexed": false,
          "internalType": "uint256",
          "name": "liquidityIndex",
          "type": "uint256"
        },
        {
          "indexed": false,
          "internalType": "uint256",
          "name": "variableBorrowIndex",
          "type": "uint256"
        }
      ],
      "name": "ReserveDataUpdated",
      "type": "event"
    },
    {
      "anonymous": false,
      "inputs": [
        {
          "indexed": true,
          "internalType": "address",
          "name": "reserve",
          "type": "address"
        },
        {
          "indexed": true,
          "internalType": "address",
          "name": "user",
          "type": "address"
        }
      ],
      "name": "ReserveUsedAsCollateralDisabled",
      "type": "event"
    },
    {
      "anonymous": false,
      "inputs": [
        {
          "indexed": true,
          "internalType": "address",
          "name": "reserve",
          "type": "address"
        },
        {
          "indexed": true,
          "internalType": "address",
          "name": "user",
          "type": "address"
        }
      ],
      "name": "ReserveUsedAsCollateralEnabled",
      "type": "event"
    },
    {
      "anonymous": false,
      "inputs": [
        {
          "indexed": true,
          "internalType": "address",
          "name": "reserve",
          "type": "address"
        },
        {
          "indexed": true,
          "internalType": "address",
          "name": "user",
          "type": "address"
        },
        {
          "indexed": false,
          "internalType": "uint256",
          "name": "rateMode",
          "type": "uint256"
        }
      ],
      "name": "Swap",
      "type": "event"
    },
    {
      "anonymous": false,
      "inputs": [],
      "name": "Unpaused",
      "type": "event"
    },
    {
      "anonymous": false,
      "inputs": [
        {
          "indexed": true,
          "internalType": "address",
          "name": "reserve",
          "type": "address"
        },
        {
          "indexed": true,
          "internalType": "address",
          "name": "user",
          "type": "address"
        },
        {
          "indexed": true,
          "internalType": "address",
          "name": "to",
          "type": "address"
        },
        {
          "indexed": false,
          "internalType": "uint256",
          "name": "amount",
          "type": "uint256"
        }
      ],
      "name": "Withdraw",
      "type": "event"
    },
    {
      "anonymous": false,
      "inputs": [
        {
          "indexed": true,
          "internalType": "address",
          "name": "reserve",
          "type": "address"
        },
        {
          "indexed": true,
          "internalType": "address",
          "name": "user",
          "type": "address"
        },
        {
          "indexed": true,
          "internalType": "address",
          "name": "to",
          "type": "address"
        },
        {
          "indexed": false,
          "internalType": "uint256",
          "name": "amount",
          "type": "uint256"
        }
      ],
      "name": "WithdrawInterest",
      "type": "event"
    },
    {
      "inputs": [],
      "name": "LENDINGPOOL_REVISION",
      "outputs": [
        {
          "internalType": "uint256",
          "name": "",
          "type": "uint256"
        }
      ],
      "stateMutability": "view",
      "type": "function"
    },
    {
      "inputs": [],
      "name": "MAX_NUMBER_RESERVES",
      "outputs": [
        {
          "internalType": "uint256",
          "name": "",
          "type": "uint256"
        }
      ],
      "stateMutability": "view",
      "type": "function"
    },
    {
      "inputs": [
        {
          "internalType": "address",
          "name": "project",
          "type": "address"
        },
        {
          "internalType": "address",
          "name": "asset",
          "type": "address"
        },
        {
          "internalType": "uint256",
          "name": "amount",
          "type": "uint256"
        },
        {
          "internalType": "address",
          "name": "onBehalfOf",
          "type": "address"
        }
      ],
      "name": "borrow",
      "outputs": [],
      "stateMutability": "nonpayable",
      "type": "function"
    },
    {
      "inputs": [
        {
          "internalType": "address",
          "name": "project",
          "type": "address"
        },
        {
          "internalType": "address",
          "name": "asset",
          "type": "address"
        },
        {
          "internalType": "uint256",
          "name": "amount",
          "type": "uint256"
        },
        {
          "internalType": "address",
          "name": "onBehalfOf",
          "type": "address"
        }
      ],
      "name": "deposit",
      "outputs": [],
      "stateMutability": "nonpayable",
      "type": "function"
    },
    {
      "inputs": [
        {
          "internalType": "address",
          "name": "project",
          "type": "address"
        },
        {
          "internalType": "address",
          "name": "from",
          "type": "address"
        },
        {
          "internalType": "address",
          "name": "to",
          "type": "address"
        },
        {
          "internalType": "uint256",
          "name": "amount",
          "type": "uint256"
        },
        {
          "internalType": "uint256",
          "name": "balanceFromBefore",
          "type": "uint256"
        },
        {
          "internalType": "uint256",
          "name": "balanceToBefore",
          "type": "uint256"
        }
      ],
      "name": "finalizeTransfer",
      "outputs": [],
      "stateMutability": "nonpayable",
      "type": "function"
    },
    {
      "inputs": [
        {
          "internalType": "address",
          "name": "project",
          "type": "address"
        }
      ],
      "name": "getATokenAddress",
      "outputs": [
        {
          "internalType": "address",
          "name": "atoken",
          "type": "address"
        }
      ],
      "stateMutability": "view",
      "type": "function"
    },
    {
      "inputs": [],
      "name": "getAddressesProvider",
      "outputs": [
        {
          "internalType": "contract ILendingPoolAddressesProvider",
          "name": "",
          "type": "address"
        }
      ],
      "stateMutability": "view",
      "type": "function"
    },
    {
      "inputs": [
        {
          "internalType": "address",
          "name": "project",
          "type": "address"
        }
      ],
      "name": "getConfiguration",
      "outputs": [
        {
          "components": [
            {
              "internalType": "uint256",
              "name": "data",
              "type": "uint256"
            }
          ],
          "internalType": "struct DataTypes.ReserveConfigurationMap",
          "name": "",
          "type": "tuple"
        }
      ],
      "stateMutability": "view",
      "type": "function"
    },
    {
      "inputs": [
        {
          "internalType": "address",
          "name": "project",
          "type": "address"
        }
      ],
      "name": "getPTokenAddress",
      "outputs": [
        {
          "internalType": "address",
          "name": "ptoken",
          "type": "address"
        }
      ],
      "stateMutability": "view",
      "type": "function"
    },
    {
      "inputs": [
        {
          "internalType": "address",
          "name": "project",
          "type": "address"
        }
      ],
      "name": "getReserveData",
      "outputs": [
        {
          "components": [
            {
              "components": [
                {
                  "internalType": "uint256",
                  "name": "data",
                  "type": "uint256"
                }
              ],
              "internalType": "struct DataTypes.ReserveConfigurationMap",
              "name": "configuration",
              "type": "tuple"
            },
            {
              "internalType": "uint128",
              "name": "liquidityIndex",
              "type": "uint128"
            },
            {
              "internalType": "uint128",
              "name": "variableBorrowIndex",
              "type": "uint128"
            },
            {
              "internalType": "uint128",
              "name": "currentLiquidityRate",
              "type": "uint128"
            },
            {
              "internalType": "uint128",
              "name": "currentVariableBorrowRate",
              "type": "uint128"
            },
            {
              "internalType": "uint128",
              "name": "currentStableBorrowRate",
              "type": "uint128"
            },
            {
              "internalType": "uint40",
              "name": "lastUpdateTimestamp",
              "type": "uint40"
            },
            {
              "internalType": "address",
              "name": "aTokenAddress",
              "type": "address"
            },
            {
              "internalType": "address",
              "name": "stableDebtTokenAddress",
              "type": "address"
            },
            {
              "internalType": "address",
              "name": "variableDebtTokenAddress",
              "type": "address"
            },
            {
              "internalType": "address",
              "name": "interestRateStrategyAddress",
              "type": "address"
            },
            {
              "internalType": "uint8",
              "name": "id",
              "type": "uint8"
            },
            {
              "internalType": "address",
              "name": "underlyingAsset",
              "type": "address"
            },
            {
              "internalType": "address",
              "name": "projectBorrower",
              "type": "address"
            },
            {
              "internalType": "address",
              "name": "pTokenAddress",
              "type": "address"
            }
          ],
          "internalType": "struct DataTypes.ReserveData",
          "name": "",
          "type": "tuple"
        }
      ],
      "stateMutability": "view",
      "type": "function"
    },
    {
      "inputs": [
        {
          "internalType": "address",
          "name": "project",
          "type": "address"
        }
      ],
      "name": "getReserveNormalizedIncome",
      "outputs": [
        {
          "internalType": "uint256",
          "name": "",
          "type": "uint256"
        }
      ],
      "stateMutability": "view",
      "type": "function"
    },
    {
      "inputs": [
        {
          "internalType": "address",
          "name": "project",
          "type": "address"
        }
      ],
      "name": "getReserveNormalizedVariableDebt",
      "outputs": [
        {
          "internalType": "uint256",
          "name": "",
          "type": "uint256"
        }
      ],
      "stateMutability": "view",
      "type": "function"
    },
    {
      "inputs": [],
      "name": "getReservesList",
      "outputs": [
        {
          "internalType": "address[]",
          "name": "",
          "type": "address[]"
        }
      ],
      "stateMutability": "view",
      "type": "function"
    },
    {
      "inputs": [
        {
          "internalType": "address",
          "name": "project",
          "type": "address"
        }
      ],
      "name": "getUnderlyingAsset",
      "outputs": [
        {
          "internalType": "address",
          "name": "asset",
          "type": "address"
        }
      ],
      "stateMutability": "view",
      "type": "function"
    },
    {
      "inputs": [
        {
          "internalType": "address",
          "name": "user",
          "type": "address"
        }
      ],
      "name": "getUserConfiguration",
      "outputs": [
        {
          "components": [
            {
              "internalType": "uint256",
              "name": "data",
              "type": "uint256"
            }
          ],
          "internalType": "struct DataTypes.UserConfigurationMap",
          "name": "",
          "type": "tuple"
        }
      ],
      "stateMutability": "view",
      "type": "function"
    },
    {
      "inputs": [
        {
          "internalType": "address",
          "name": "project",
          "type": "address"
        },
        {
          "internalType": "address",
          "name": "asset",
          "type": "address"
        },
        {
          "internalType": "address",
          "name": "aTokenAddress",
          "type": "address"
        },
        {
          "internalType": "address",
          "name": "pTokenAddress",
          "type": "address"
        },
        {
          "internalType": "address",
          "name": "stableDebtAddress",
          "type": "address"
        },
        {
          "internalType": "address",
          "name": "variableDebtAddress",
          "type": "address"
        },
        {
          "internalType": "address",
          "name": "interestRateStrategyAddress",
          "type": "address"
        },
        {
          "internalType": "address",
          "name": "projectBorrower",
          "type": "address"
        }
      ],
      "name": "initReserve",
      "outputs": [],
      "stateMutability": "nonpayable",
      "type": "function"
    },
    {
      "inputs": [
        {
          "internalType": "contract ILendingPoolAddressesProvider",
          "name": "provider",
          "type": "address"
        }
      ],
      "name": "initialize",
      "outputs": [],
      "stateMutability": "nonpayable",
      "type": "function"
    },
    {
      "inputs": [],
      "name": "paused",
      "outputs": [
        {
          "internalType": "bool",
          "name": "",
          "type": "bool"
        }
      ],
      "stateMutability": "view",
      "type": "function"
    },
    {
      "inputs": [
        {
          "internalType": "address",
          "name": "project",
          "type": "address"
        },
        {
          "internalType": "address",
          "name": "asset",
          "type": "address"
        },
        {
          "internalType": "uint256",
          "name": "amount",
          "type": "uint256"
        },
        {
          "internalType": "address",
          "name": "onBehalfOf",
          "type": "address"
        }
      ],
      "name": "repay",
      "outputs": [
        {
          "internalType": "uint256",
          "name": "",
          "type": "uint256"
        }
      ],
      "stateMutability": "nonpayable",
      "type": "function"
    },
    {
      "inputs": [
        {
          "internalType": "address",
          "name": "project",
          "type": "address"
        },
        {
          "internalType": "uint256",
          "name": "configuration",
          "type": "uint256"
        }
      ],
      "name": "setConfiguration",
      "outputs": [],
      "stateMutability": "nonpayable",
      "type": "function"
    },
    {
      "inputs": [
        {
          "internalType": "bool",
          "name": "val",
          "type": "bool"
        }
      ],
      "name": "setPause",
      "outputs": [],
      "stateMutability": "nonpayable",
      "type": "function"
    },
    {
      "inputs": [
        {
          "internalType": "address",
          "name": "project",
          "type": "address"
        },
        {
          "internalType": "address",
          "name": "rateStrategyAddress",
          "type": "address"
        }
      ],
      "name": "setReserveInterestRateStrategyAddress",
      "outputs": [],
      "stateMutability": "nonpayable",
      "type": "function"
    },
    {
      "inputs": [
        {
          "internalType": "address",
          "name": "project",
          "type": "address"
        },
        {
          "internalType": "uint128",
          "name": "newDepositRate",
          "type": "uint128"
        },
        {
          "internalType": "uint128",
          "name": "newBorrowRate",
          "type": "uint128"
        }
      ],
      "name": "updateInterestRates",
      "outputs": [],
      "stateMutability": "nonpayable",
      "type": "function"
    },
    {
      "inputs": [
        {
          "internalType": "address",
          "name": "project",
          "type": "address"
        },
        {
          "internalType": "address",
          "name": "projectBorrower",
          "type": "address"
        }
      ],
      "name": "updateProjectBorrower",
      "outputs": [],
      "stateMutability": "nonpayable",
      "type": "function"
    },
    {
      "inputs": [
        {
          "internalType": "address",
          "name": "project",
          "type": "address"
        },
        {
          "internalType": "address",
          "name": "asset",
          "type": "address"
        },
        {
          "internalType": "uint256",
          "name": "amount",
          "type": "uint256"
        },
        {
          "internalType": "address",
          "name": "to",
          "type": "address"
        }
      ],
      "name": "withdraw",
      "outputs": [
        {
          "internalType": "uint256",
          "name": "",
          "type": "uint256"
        }
      ],
      "stateMutability": "nonpayable",
      "type": "function"
    },
    {
      "inputs": [
        {
          "internalType": "address",
          "name": "project",
          "type": "address"
        },
        {
          "internalType": "address",
          "name": "asset",
          "type": "address"
        },
        {
          "internalType": "address",
          "name": "to",
          "type": "address"
        }
      ],
      "name": "withdrawInterest",
      "outputs": [
        {
          "internalType": "uint256",
          "name": "",
          "type": "uint256"
        }
      ],
      "stateMutability": "nonpayable",
      "type": "function"
    }
  ],
  "bytecode": "0x60806040526000805534801561001457600080fd5b50613293806100246000396000f3fe608060405234801561001057600080fd5b506004361061018e5760003560e01c8063b8d29276116100de578063d5ed393311610097578063f3d2398a11610071578063f3d2398a1461036d578063f61e61ae14610380578063f8119d5114610393578063fe65acfe1461039b5761018e565b8063d5ed393314610334578063e5cd487f14610347578063e8689daa1461035a5761018e565b8063b8d29276146102c0578063bedb86fb146102d3578063c44b11f7146102e6578063c4d66de8146102f9578063d15e00531461030c578063d1946dbc1461031f5761018e565b80634417a5831161014b578063697efd2211610125578063697efd221461027257806370cf1c8714610292578063711cc005146102a55780638afaff02146102b85761018e565b80634417a5831461022a57806352da17a41461024a5780635c975abb1461025d5761018e565b80630e917f761461019357806313c0d54f146101bc5780631d2118f9146101d157806335ea6a75146101e4578063386497fd146102045780633bc1f1ed14610217575b600080fd5b6101a66101a1366004612ac9565b6103a3565b6040516101b391906131f0565b60405180910390f35b6101cf6101ca366004612b1b565b610661565b005b6101cf6101df36600461293b565b61069c565b6101f76101f2366004612903565b6106d5565b6040516101b39190612ff3565b6101a6610212366004612903565b6107de565b6101cf610225366004612ac9565b610805565b61023d610238366004612903565b6109fb565b6040516101b39190612fe9565b6101a6610258366004612ac9565b610a2e565b610265610d8a565b6040516101b39190612e2f565b610285610280366004612903565b610d93565b6040516101b39190612c60565b6101cf6102a03660046129bd565b610db4565b6102856102b3366004612903565b610ee2565b6101a6610f03565b6101cf6102ce366004612b5a565b610f08565b6101cf6102e1366004612b85565b610f2c565b61023d6102f4366004612903565b610fa7565b6101cf610307366004612903565b610fda565b6101a661031a366004612903565b611083565b6103276110a4565b6040516101b39190612de2565b6101cf610342366004612a65565b611149565b6101cf610355366004612ac9565b6112d7565b610285610368366004612903565b611399565b6101cf61037b36600461293b565b6113ba565b6101a661038e366004612973565b6113fe565b6101a661165e565b610285611664565b60006103ad611673565b6001600160a01b03858116600090815260356020908152604091829020600881015483518085019094526002845261383160f01b92840192909252928781169116146104155760405162461bcd60e51b815260040161040c9190612e3a565b60405180910390fd5b506004808201546040516370a0823160e01b81526001600160a01b039091169160009183916370a082319161044c91339101612c60565b60206040518083038186803b15801561046457600080fd5b505afa158015610478573d6000803e3d6000fd5b505050506040513d601f19601f8201168201806040525081019061049c9190612bbd565b9050856000198114156104ac5750805b60405163080f482960e41b815273__$de8c0cf1a7d7c36c802af9a64fb9d86036$__906380f48290906104ea908c9085908790603590600401612dbc565b60006040518083038186803b15801561050257600080fd5b505af4158015610516573d6000803e3d6000fd5b50505050610523846116b1565b8181141561058d576007840154336000908152603660205260408120610556929091600160a01b90910460ff169061177e565b60405133906001600160a01b038a16907f44c58d81365b66dd4b1a7f36c25aa97b8c71c361ee4937adc1a00000227db5dd90600090a35b6001840154604051636b81068560e11b81526001600160a01b0385169163d7020d0a916105ce9133918b9187916001600160801b0390911690600401612ca0565b600060405180830381600087803b1580156105e857600080fd5b505af11580156105fc573d6000803e3d6000fd5b50505050856001600160a01b0316336001600160a01b03168a6001600160a01b03167f3115d1449a7b732c986cba18244e897a450f61e1bb8d589cd2e69e6c8924f9f78460405161064d91906131f0565b60405180910390a498975050505050505050565b6106696117f4565b6001600160a01b038316600090815260356020526040902061068d818585856118b3565b610696816116b1565b50505050565b6106a46117f4565b6001600160a01b03918216600090815260356020526040902060070180546001600160a01b03191691909216179055565b6106dd61280c565b506001600160a01b0381811660009081526035602090815260409182902082516102008101845281546101e08201908152815260018201546001600160801b0380821694830194909452600160801b908190048416948201949094526002820154808416606083015284900483166080820152600382015492831660a08201529290910464ffffffffff1660c08301526004810154831660e083015260058101548316610100830152600681015483166101208301526007810154808416610140840152600160a01b900460ff1661016083015260088101548316610180830152600981015483166101a0830152600a01549091166101c08201525b919050565b6001600160a01b03811660009081526035602052604081206107ff906119d1565b92915050565b61080d611673565b6001600160a01b03848116600090815260356020908152604091829020600881015483518085019094526002845261383160f01b928401929092529286811691161461086c5760405162461bcd60e51b815260040161040c9190612e3a565b50604051630eca322b60e01b815273__$de8c0cf1a7d7c36c802af9a64fb9d86036$__90630eca322b906108a6908490879060040161316b565b60006040518083038186803b1580156108be57600080fd5b505af41580156108d2573d6000803e3d6000fd5b5050506004820154600a8301546001600160a01b039182169250166108f6836116b1565b61090b6001600160a01b038716338488611a4e565b6001830154604051630ab714fb60e11b81526001600160a01b0384169163156e29f6916109489188918a916001600160801b031690600401612d92565b602060405180830381600087803b15801561096257600080fd5b505af1158015610976573d6000803e3d6000fd5b505050506040513d601f19601f8201168201806040525081019061099a9190612ba1565b50836001600160a01b0316866001600160a01b0316886001600160a01b03167fa856e8f098813135735b4d4f52d96083d1dbb35fd5603ff424661413f59c281033896040516109ea929190612cd1565b60405180910390a450505050505050565b610a0361288f565b506001600160a01b031660009081526036602090815260409182902082519182019092529054815290565b6000610a38611673565b6001600160a01b03858116600090815260356020908152604091829020600881015483518085019094526002845261383160f01b9284019290925292878116911614610a975760405162461bcd60e51b815260040161040c9190612e3a565b50600080610aa58584611aa6565b60405163fa0c214960e01b8152919350915060019073__$de8c0cf1a7d7c36c802af9a64fb9d86036$__9063fa0c214990610aee9087908b9086908c908a908a90600401613179565b60006040518083038186803b158015610b0657600080fd5b505af4158015610b1a573d6000803e3d6000fd5b506000925060019150610b2a9050565b826002811115610b3657fe5b14610b415782610b43565b835b905080881015610b505750865b610b59856116b1565b6001826002811115610b6757fe5b1415610bd8576005850154604051632770a7eb60e21b81526001600160a01b0390911690639dc29fac90610ba1908a908590600401612cd1565b600060405180830381600087803b158015610bbb57600080fd5b505af1158015610bcf573d6000803e3d6000fd5b50505050610c56565b60068501546001860154604051637a94c56560e11b81526001600160a01b039092169163f5298aca91610c23918b918691600160801b9091046001600160801b031690600401612d92565b600060405180830381600087803b158015610c3d57600080fd5b505af1158015610c51573d6000803e3d6000fd5b505050505b60048501546001600160a01b0316610c7882610c728787611bba565b90611bdf565b610cb05760078601546001600160a01b0389166000908152603660205260408120610cb0929091600160a01b90910460ff1690611c21565b610cc56001600160a01b038b16338385611a4e565b6040516388dd91a160e01b81526001600160a01b038216906388dd91a190610cf39033908690600401612cd1565b600060405180830381600087803b158015610d0d57600080fd5b505af1158015610d21573d6000803e3d6000fd5b50505050336001600160a01b03168a6001600160a01b03168c6001600160a01b03167f15e061f85ae0cc955acf34c814a39567895400d498e2e52faa1fbe370bbe46f28b86604051610d74929190612cd1565b60405180910390a4509998505050505050505050565b60395460ff1690565b6001600160a01b039081166000908152603560205260409020600a01541690565b610dbc6117f4565b610dc588611c91565b6040518060400160405280600281526020016106e760f31b81525090610dfe5760405162461bcd60e51b815260040161040c9190612e3a565b50610e0887611c91565b6040518060400160405280600281526020016106e760f31b81525090610e415760405162461bcd60e51b815260040161040c9190612e3a565b506001600160a01b038816600090815260356020526040908190209051633fdf319760e11b815273__$22cd43a9dda9ce44e9b92ba393b88fb9ac$__91637fbe632e91610e9f91908b908b908b908b908b908b908b90600401613125565b60006040518083038186803b158015610eb757600080fd5b505af4158015610ecb573d6000803e3d6000fd5b50505050610ed888611cca565b5050505050505050565b6001600160a01b039081166000908152603560205260409020600401541690565b600281565b610f106117f4565b6001600160a01b03909116600090815260356020526040902055565b610f346117f4565b6039805460ff1916821515179081905560ff1615610f7a576040517f9e87fac88ff661f02d44f95383c817fece4bce600a3dab7a54406878b965e75290600090a1610fa4565b6040517fa45f47fdea8a1efdd9029a5691c7f759c32b7c698632b563573e155625d1693390600090a15b50565b610faf61288f565b506001600160a01b031660009081526035602090815260409182902082519182019092529054815290565b6000610fe4611dd3565b60015490915060ff1680610ffb5750610ffb611dd8565b80611007575060005481115b6110235760405162461bcd60e51b815260040161040c90612f1a565b60015460ff16158015611042576001805460ff19168117905560008290555b603480546001600160a01b0319166001600160a01b0385161790556109c4603a556009603b556080603c55801561107e576001805460ff191690555b505050565b6001600160a01b03811660009081526035602052604081206107ff90611dde565b60608060385467ffffffffffffffff811180156110c057600080fd5b506040519080825280602002602001820160405280156110ea578160200160208202803683370190505b50905060005b6038548110156111435760008181526037602052604090205482516001600160a01b039091169083908390811061112357fe5b6001600160a01b03909216602092830291909101909101526001016110f0565b50905090565b611151611673565b6001600160a01b038681166000908152603560209081526040918290206004015482518084019093526002835261363360f01b9183019190915290911633146111ad5760405162461bcd60e51b815260040161040c9190612e3a565b506001600160a01b03868116600090815260356020526040902060070154600160a01b900460ff1690858116908716146112ce576111eb8385611bdf565b611257576001600160a01b038616600090815260366020526040812090611215908290849061177e565b866001600160a01b0316886001600160a01b03167f44c58d81365b66dd4b1a7f36c25aa97b8c71c361ee4937adc1a00000227db5dd60405160405180910390a3505b8115801561126457508315155b156112ce576001600160a01b038516600090815260366020526040902061128d8183600161177e565b856001600160a01b0316886001600160a01b03167e058a56ea94653cdf4f152d227ace22d4c00ad99e2a43f58cb7d9e3feb295f260405160405180910390a3505b50505050505050565b6112df611673565b6001600160a01b03848116600090815260356020908152604091829020600881015483518085019094526002845261383160f01b928401929092529286811691161461133e5760405162461bcd60e51b815260040161040c9190612e3a565b506040805160e0810182526001600160a01b03808816825286811660208301523392820192909252838216606082015260808101859052600483015490911660a0820152600160c082015261139290611e3d565b5050505050565b6001600160a01b039081166000908152603560205260409020600801541690565b6113c26117f4565b6001600160a01b0382811660009081526035602052604090206009810180546001600160a01b0319169284169290921790915561107e816116b1565b6000611408611673565b6001600160a01b03848116600090815260356020908152604091829020600881015483518085019094526002845261383160f01b92840192909252928681169116146114675760405162461bcd60e51b815260040161040c9190612e3a565b506004808201546040516370a0823160e01b81526001600160a01b039091169160009183916370a082319161149e91339101612c60565b60206040518083038186803b1580156114b657600080fd5b505afa1580156114ca573d6000803e3d6000fd5b505050506040513d601f19601f820116820180604052508101906114ee9190612bbd565b60405163063d184f60e51b815290915073__$de8c0cf1a7d7c36c802af9a64fb9d86036$__9063c7a309e09061152d908a908590603590600401612d71565b60006040518083038186803b15801561154557600080fd5b505af4158015611559573d6000803e3d6000fd5b50505050611566836116b1565b600183015460405163ea9ed41160e01b81526000916001600160a01b0385169163ea9ed411916115a89133918b916001600160801b0390911690600401612c74565b602060405180830381600087803b1580156115c257600080fd5b505af11580156115d6573d6000803e3d6000fd5b505050506040513d601f19601f820116820180604052508101906115fa9190612bbd565b9050856001600160a01b0316336001600160a01b0316896001600160a01b03167f33b07ffed5575bb52b40be8a39928028a477ed73f879528887b967baf045c32a8460405161164991906131f0565b60405180910390a493505050505b9392505050565b603c5490565b6034546001600160a01b031690565b6039546040805180820190915260028152610d8d60f21b60208201529060ff1615610fa45760405162461bcd60e51b815260040161040c9190612e3a565b60068101546040805163b1bf962d60e01b815290516000926001600160a01b03169163b1bf962d916004808301926020929190829003018186803b1580156116f857600080fd5b505afa15801561170c573d6000803e3d6000fd5b505050506040513d601f19601f820116820180604052508101906117309190612bbd565b60018301546003840154919250600160801b8082046001600160801b03908116939216910464ffffffffff1660008061176c878786888761214f565b915091506112ce8787878585886122ac565b604080518082019091526002815261373760f01b6020820152608083106117b85760405162461bcd60e51b815260040161040c9190612e3a565b5081600202600101816117cc5760006117cf565b60015b60ff16901b826002026001016001901b19846000015416178360000181905550505050565b603454604080516385c858b160e01b8152905133926001600160a01b0316916385c858b1916004808301926020929190829003018186803b15801561183857600080fd5b505afa15801561184c573d6000803e3d6000fd5b505050506040513d601f19601f82011682018060405250810190611870919061291f565b6001600160a01b03161460405180604001604052806002815260200161323760f01b81525090610fa45760405162461bcd60e51b815260040161040c9190612e3a565b604080518082019091526002815261353360f01b60208201526001600160801b0383811611156118f65760405162461bcd60e51b815260040161040c9190612e3a565b50604080518082019091526002815261353560f01b60208201526001600160801b03828116111561193a5760405162461bcd60e51b815260040161040c9190612e3a565b506002840180546003860180546001600160801b03199081166001600160801b038681169182179093559216858216178116600160801b9283021790925560018601546040516001600160a01b038716937f804c9b842b2748a22bb64b345453a3de7ca54a6ca45ce00d415894979e22897a936119c393889388938493838216930416906131be565b60405180910390a250505050565b600381015460009064ffffffffff600160801b9091048116904216811415611a0f5750506001810154600160801b90046001600160801b03166107d9565b60018301546002840154600091611a46916001600160801b03600160801b92839004811692611a409204168561247d565b9061248a565b949350505050565b610696846323b872dd60e01b858585604051602401611a6f93929190612cea565b60408051601f198184030181529190526020810180516001600160e01b03166001600160e01b03199093169290921790915261251d565b60058101546040516370a0823160e01b815260009182916001600160a01b03909116906370a0823190611add908790600401612c60565b60206040518083038186803b158015611af557600080fd5b505afa158015611b09573d6000803e3d6000fd5b505050506040513d601f19601f82011682018060405250810190611b2d9190612bbd565b60068401546040516370a0823160e01b81526001600160a01b03909116906370a0823190611b5f908890600401612c60565b60206040518083038186803b158015611b7757600080fd5b505afa158015611b8b573d6000803e3d6000fd5b505050506040513d601f19601f82011682018060405250810190611baf9190612bbd565b915091509250929050565b6000828201838110156116575760405162461bcd60e51b815260040161040c90612e6d565b600061165783836040518060400160405280601e81526020017f536166654d6174683a207375627472616374696f6e206f766572666c6f770000815250612602565b604080518082019091526002815261373760f01b602082015260808310611c5b5760405162461bcd60e51b815260040161040c9190612e3a565b508160020281611c6c576000611c6f565b60015b60ff16901b826002026001901b19846000015416178360000181905550505050565b6000813f7fc5d2460186f7233c927e7db2dcc703c0e500b653ca82273b7bfad8045d85a470818114801590611a46575050151592915050565b603854603c54604080518082019091526002815261363560f01b6020820152908210611d095760405162461bcd60e51b815260040161040c9190612e3a565b506001600160a01b038216600090815260356020526040812060070154600160a01b900460ff16151580611d7257506000805260376020527fa0a618d80eda9243166be83cb7421d97e9dab6ddddd3c70ac7a6b4440256e8e7546001600160a01b038481169116145b90508061107e57506001600160a01b03919091166000818152603560209081526040808320600701805460ff60a01b1916600160a01b60ff8816021790558483526037909152902080546001600160a01b0319169091179055600101603855565b600290565b303b1590565b600381015460009064ffffffffff600160801b9091048116904216811415611e1557505060018101546001600160801b03166107d9565b60018301546002840154600091611a46916001600160801b0391821691611a4091168561262e565b80516001600160a01b039081166000908152603560209081526040808320606086018051861685526036845293829020838701519451608088015160098401546034548651636ee554f560e11b815296519599949873__$de8c0cf1a7d7c36c802af9a64fb9d86036$__9863329d4d579891978c9794851694939093169263ddcaa9ea926004808201939291829003018186803b158015611edd57600080fd5b505afa158015611ef1573d6000803e3d6000fd5b505050506040513d601f19601f82011682018060405250810190611f15919061291f565b6040518763ffffffff1660e01b8152600401611f3696959493929190612d37565b60006040518083038186803b158015611f4e57600080fd5b505af4158015611f62573d6000803e3d6000fd5b50505050611f6f826116b1565b6003820154600583015460408086015160608701516080880151925163b3f1c93d60e01b81526001600160801b03909516946000946001600160a01b03169363b3f1c93d93611fc79390929091908890600401612d0e565b602060405180830381600087803b158015611fe157600080fd5b505af1158015611ff5573d6000803e3d6000fd5b505050506040513d601f19601f820116820180604052508101906120199190612ba1565b9050801561203d57600784015461203d908490600160a01b900460ff166001611c21565b8460c00151156120db578460a001516001600160a01b0316639c60d0f68660200151876040015188608001516040518463ffffffff1660e01b815260040161208793929190612cea565b602060405180830381600087803b1580156120a157600080fd5b505af11580156120b5573d6000803e3d6000fd5b505050506040513d601f19601f820116820180604052508101906120d99190612bbd565b505b84606001516001600160a01b031685602001516001600160a01b031686600001516001600160a01b03167ff0d08ddf09572cb350fab56a3b6227f9826c02afb0266f3b26700df2eacb8a2f886040015189608001518760405161214093929190612d71565b60405180910390a45050505050565b600285015460009081906001600160801b03168585821561227d576000612176848861262e565b9050612182818a61248a565b604080518082019091526002815261353160f01b60208201529093506001600160801b038411156121c65760405162461bcd60e51b815260040161040c9190612e3a565b5060018b0180546001600160801b0319166001600160801b038516179055891561227b5760028b015460009061220c90600160801b90046001600160801b03168961247d565b9050612218818a61248a565b6040805180820190915260028152611a9960f11b60208201529093506001600160801b0384111561225c5760405162461bcd60e51b815260040161040c9190612e3a565b505060018b0180546001600160801b03808516600160801b0291161790555b505b600399909901805464ffffffffff60801b1916600160801b4264ffffffffff1602179055989650505050505050565b6122b46128a2565b6122bd8761266c565b61012082018190526122cf5750612475565b8660050160009054906101000a90046001600160a01b03166001600160a01b031663797743386040518163ffffffff1660e01b815260040160806040518083038186803b15801561231f57600080fd5b505afa158015612333573d6000803e3d6000fd5b505050506040513d601f19601f820116820180604052508101906123579190612bd5565b64ffffffffff1661014085015260a08401528252602082015261237a868661248a565b6080820152612389868461248a565b606082015260a08101516101408201516123ab919064ffffffffff8516612677565b60c0820181905260208201516123c09161248a565b604082018190526080820151825160608401516123e59392610c729290918391611bba565b60e082018190526101208201516123fc9190612753565b6101008201819052156112ce57600480880154610100830151604051637df5bd3b60e01b81526001600160a01b0390921692637df5bd3b92612441929189910161316b565b600060405180830381600087803b15801561245b57600080fd5b505af115801561246f573d6000803e3d6000fd5b50505050505b505050505050565b6000611657838342612677565b6000821580612497575081155b156124a4575060006107ff565b816b019d971e4fe8401e7400000019816124ba57fe5b0483111560405180604001604052806002815260200161068760f31b815250906124f75760405162461bcd60e51b815260040161040c9190612e3a565b506b033b2e3c9fd0803ce80000006002815b04838502018161251557fe5b049392505050565b61252f826001600160a01b0316611c91565b61254b5760405162461bcd60e51b815260040161040c90612fb2565b60006060836001600160a01b0316836040516125679190612c44565b6000604051808303816000865af19150503d80600081146125a4576040519150601f19603f3d011682016040523d82523d6000602084013e6125a9565b606091505b5091509150816125cb5760405162461bcd60e51b815260040161040c90612ea4565b80511561069657808060200190518101906125e69190612ba1565b6106965760405162461bcd60e51b815260040161040c90612f68565b600081848411156126265760405162461bcd60e51b815260040161040c9190612e3a565b505050900390565b6000806126424264ffffffffff8516611bdf565b9050611a4661264f6127c2565b6301e1338061265e87856127d2565b8161266557fe5b0490611bba565b5460401c61ffff1690565b60008061268b8364ffffffffff8616611bdf565b9050806126a25761269a6127c2565b915050611657565b60001981016000600283116126b85760006126bd565b600283035b90506301e13380870460006126d2828061248a565b905060006126e0828461248a565b9050600060026126fa846126f48a8a6127d2565b906127d2565b8161270157fe5b04905060006006612718846126f489818d8d6127d2565b8161271f57fe5b0490506127438161273d84816127358a8e6127d2565b61273d6127c2565b90611bba565b9c9b505050505050505050505050565b6000821580612760575081155b1561276d575060006107ff565b81611388198161277957fe5b0483111560405180604001604052806002815260200161068760f31b815250906127b65760405162461bcd60e51b815260040161040c9190612e3a565b50612710600281612509565b6b033b2e3c9fd0803ce800000090565b6000826127e1575060006107ff565b828202828482816127ee57fe5b04146116575760405162461bcd60e51b815260040161040c90612ed9565b604051806101e0016040528061282061288f565b815260006020820181905260408201819052606082018190526080820181905260a0820181905260c0820181905260e08201819052610100820181905261012082018190526101408201819052610160820181905261018082018190526101a082018190526101c09091015290565b6040518060200160405280600081525090565b60405180610160016040528060008152602001600081526020016000815260200160008152602001600081526020016000815260200160008152602001600081526020016000815260200160008152602001600064ffffffffff1681525090565b600060208284031215612914578081fd5b813561165781613225565b600060208284031215612930578081fd5b815161165781613225565b6000806040838503121561294d578081fd5b823561295881613225565b9150602083013561296881613225565b809150509250929050565b600080600060608486031215612987578081fd5b833561299281613225565b925060208401356129a281613225565b915060408401356129b281613225565b809150509250925092565b600080600080600080600080610100898b0312156129d9578384fd5b88356129e481613225565b975060208901356129f481613225565b96506040890135612a0481613225565b95506060890135612a1481613225565b94506080890135612a2481613225565b935060a0890135612a3481613225565b925060c0890135612a4481613225565b915060e0890135612a5481613225565b809150509295985092959890939650565b60008060008060008060c08789031215612a7d578182fd5b8635612a8881613225565b95506020870135612a9881613225565b94506040870135612aa881613225565b959894975094956060810135955060808101359460a0909101359350915050565b60008060008060808587031215612ade578384fd5b8435612ae981613225565b93506020850135612af981613225565b9250604085013591506060850135612b1081613225565b939692955090935050565b600080600060608486031215612b2f578283fd5b8335612b3a81613225565b92506020840135612b4a81613248565b915060408401356129b281613248565b60008060408385031215612b6c578182fd5b8235612b7781613225565b946020939093013593505050565b600060208284031215612b96578081fd5b81356116578161323a565b600060208284031215612bb2578081fd5b81516116578161323a565b600060208284031215612bce578081fd5b5051919050565b60008060008060808587031215612bea578182fd5b845193506020850151925060408501519150606085015164ffffffffff81168114612b10578182fd5b6001600160a01b03169052565b519052565b6001600160801b03169052565b64ffffffffff169052565b60ff169052565b60008251612c568184602087016131f9565b9190910192915050565b6001600160a01b0391909116815260200190565b6001600160a01b0393841681529190921660208201526001600160801b03909116604082015260600190565b6001600160a01b03948516815292909316602083015260408201526001600160801b03909116606082015260800190565b6001600160a01b03929092168252602082015260400190565b6001600160a01b039384168152919092166020820152604081019190915260600190565b6001600160a01b0394851681529290931660208301526040820152606081019190915260800190565b6001600160a01b0396871681526020810195909552928516604085015260608401919091528316608083015290911660a082015260c00190565b6001600160a01b039390931683526020830191909152604082015260600190565b6001600160a01b0393909316835260208301919091526001600160801b0316604082015260600190565b6001600160a01b0394909416845260208401929092526040830152606082015260800190565b6020808252825182820181905260009190848201906040850190845b81811015612e235783516001600160a01b031683529284019291840191600101612dfe565b50909695505050505050565b901515815260200190565b6000602082528251806020840152612e598160408501602087016131f9565b601f01601f19169190910160400192915050565b6020808252601b908201527f536166654d6174683a206164646974696f6e206f766572666c6f770000000000604082015260600190565b6020808252818101527f5361666545524332303a206c6f772d6c6576656c2063616c6c206661696c6564604082015260600190565b60208082526021908201527f536166654d6174683a206d756c7469706c69636174696f6e206f766572666c6f6040820152607760f81b606082015260800190565b6020808252602e908201527f436f6e747261637420696e7374616e63652068617320616c726561647920626560408201526d195b881a5b9a5d1a585b1a5e995960921b606082015260800190565b6020808252602a908201527f5361666545524332303a204552433230206f7065726174696f6e20646964206e6040820152691bdd081cdd58d8d9595960b21b606082015260800190565b6020808252601f908201527f5361666545524332303a2063616c6c20746f206e6f6e2d636f6e747261637400604082015260600190565b9051815260200190565b60006101e082019050613007828451612c20565b60208301516130196020840182612c25565b50604083015161302c6040840182612c25565b50606083015161303f6060840182612c25565b5060808301516130526080840182612c25565b5060a083015161306560a0840182612c25565b5060c083015161307860c0840182612c32565b5060e083015161308b60e0840182612c13565b506101008084015161309f82850182612c13565b5050610120808401516130b482850182612c13565b5050610140808401516130c982850182612c13565b5050610160808401516130de82850182612c3d565b5050610180808401516130f382850182612c13565b50506101a08084015161310882850182612c13565b50506101c08084015161311d82850182612c13565b505092915050565b9788526001600160a01b039687166020890152948616604088015292851660608701529084166080860152831660a0850152821660c08401521660e08201526101000190565b918252602082015260400190565b8681526020810186905260c081016003861061319157fe5b60408201959095526001600160a01b03939093166060840152608083019190915260a09091015292915050565b6001600160801b0395861681529385166020850152918416604084015283166060830152909116608082015260a00190565b90815260200190565b60005b838110156132145781810151838201526020016131fc565b838111156106965750506000910152565b6001600160a01b0381168114610fa457600080fd5b8015158114610fa457600080fd5b6001600160801b0381168114610fa457600080fdfea2646970667358221220dacef53a70e688cfb8aa6ff3833a59ee2d7f34daab74753d4ed41f81c4d0f77f64736f6c634300060c0033",
  "linkReferences": {
    "contracts/protocol/libraries/logic/ReserveLogic.sol": {
      "ReserveLogic": [
        {
          "length": 20,
          "start": 3726
        }
      ]
    },
    "contracts/protocol/libraries/logic/ValidationLogic.sol": {
      "ValidationLogic": [
        {
          "length": 20,
          "start": 1247
        },
        {
          "length": 20,
          "start": 2208
        },
        {
          "length": 20,
          "start": 2784
        },
        {
          "length": 20,
          "start": 5412
        },
        {
          "length": 20,
          "start": 7864
        }
      ]
    }
  },
  "deployedLinkReferences": {
    "contracts/protocol/libraries/logic/ReserveLogic.sol": {
      "ReserveLogic": [
        {
          "length": 20,
          "start": 3690
        }
      ]
    },
    "contracts/protocol/libraries/logic/ValidationLogic.sol": {
      "ValidationLogic": [
        {
          "length": 20,
          "start": 1211
        },
        {
          "length": 20,
          "start": 2172
        },
        {
          "length": 20,
          "start": 2748
        },
        {
          "length": 20,
          "start": 5376
        },
        {
          "length": 20,
          "start": 7828
        }
      ]
    }
  }
}